S01700004763634170706C69636174696F6E342E7372656358
S11300000C9434000C9446000C9446000C94460066
S11300100C9446000C9446000C9446000C94460044
S11300200C9446000C9446000C9446000C94460034
S11300300C9446000C9446000C9446000C94460024
S11300400C9446000C9446000C9446000C94460014
S11300500C9446000C9446000C9446000C94460004
S11300600C9446000C94460011241FBECFEFD8E038
S1130070DEBFCDBF21E0A0E0B1E001C01D92A230FF
S1130080B207E1F70E9448000C9464000C9400004D
S11300908FEF8AB987E880937A0080E480937C00AC
S11300A0EAE7F0E080818064808380917A0086FDB5
S11300B0FCCF809178008BB98091790090E0909387
S10F00C0010180930001ECCFF894FFCF05
S9030000FC
