S01700004763634170706C69636174696F6E352E7372656357
S11300000C9434000C9446000C9446000C94460066
S11300100C9446000C9446000C9446000C94460044
S11300200C9446000C9446000C9446000C948800F2
S11300300C9446000C9446000C9446000C94460024
S11300400C9446000C9446000C9446000C94460014
S11300500C9446000C9446000C9446000C94460004
S11300600C9446000C94460011241FBECFEFD8E038
S1130070DEBFCDBF21E0A0E0B1E001C01D92A230FF
S1130080B207E1F70E9448000C94D5000C940000DC
S11300908FEF84B986EC8093800089E0809381009F
S11300A087E880937A0080E480937C001092850036
S11300B010928400109289001092880010928B0094
S11300C010928A001092B3007894EAE7F0E08081FD
S11300D08064808380917A0086FDFCCFE8E7F0E0BD
S11300E0808191819093890080938800808191819F
S11300F090938B0080938A00808191818093B300D8
S11301008091790090E09093010180930001DDCF0C
S11301101F920F920FB60F9211248F939F93EF9318
S1130120FF9385B18F3F49F5E8E7F0E08081918145
S11301300024969587950794969587950794982F0C
S1130140802D909389008093880080819181002480
S1130150969587950794969587950794982F802D63
S113016090938B0080938A00808191818295880F7F
S1130170880F807C8093B3000FC084E690E0909356
S113018089008093880088EC90E090938B008093A2
S11301908A0088EC8093B300FF91EF919F918F9137
S11101A00F900FBE0F901F901895F894FFCF8C
S9030000FC
