S01700004763634170706C69636174696F6E312E737265635B
S11300000C9434000C946A000C943E000C943E0052
S11300100C943E000C943E000C943E000C943E0064
S11300200C943E000C943E000C943E000C943E0054
S11300300C943E000C943E000C943E000C943E0044
S11300400C943E000C943E000C943E000C943E0034
S11300500C943E000C943E000C943E000C943E0024
S11300600C943E000C943E0011241FBECFEFD8E048
S1130070DEBFCDBF0E9440000C9484000C940000AD
S113008080E78AB982E08093690081E08DBB78942F
S113009080E18BB92FEF89E698E1215080409040B0
S11300A0E1F700C0000080E28BB92FEF89E698E108
S11300B0215080409040E1F700C0000080E48BB9FB
S11300C02FEF89E698E1215080409040E1F700C08D
S11300D00000DECF1F920F920FB60F9211242F93C0
S11300E08F939F931BB82FEF83ED90E321508040B3
S11300F09040E1F700C000009F918F912F910F90E5
S10F01000FBE0F901F901895F894FFCFCD
S9030000FC
