:100000000C9434000C943E000C943E000C943E0082
:100010000C943E000C943E000C943E000C943E0068
:100020000C943E000C943E000C943E000C943E0058
:100030000C943E000C943E000C943E000C943E0048
:100040000C943E000C943E000C943E000C943E0038
:100050000C943E000C943E000C943E000C943E0028
:100060000C943E000C943E0011241FBECFEFD8E04C
:10007000DEBFCDBF0E9440000C9473000C940000C2
:100080008FEF84B910928500109284008FEF93E077
:10009000909389008093880083EC8093800089E0AE
:1000A00080938100789480E090E012C0E8E8F0E06E
:1000B00020813181281B390B318320832FEF30E7DA
:1000C00042E0215030404040E1F700C0000001967E
:1000D000811524E0920754F38FEF93E09093890009
:0A00E00080938800E0CFF894FFCF72
:00000001FF
